:020000040000FA
:100000001806002001160000091600000B1600005B
:1000100000000000000000000000000000000000E0
:100020000000000000000000000000000D160000AD
:1000300000000000000000000F160000591300002F
:10004000131600001316000013160000131600000C
:1000500013160000131600001316000013160000FC
:10006000E513000013160000131600009914000099
:1000700013160000131600001316000011140000E0
:1000800013160000C1140000131600001316000020
:100090004114000013160000131600001316000090
:1000A00013160000131600001316000013160000AC
:1000B00000F002F800F050F812A030C808382418F8
:1000C0002D18AC4201D100F047F80FCCA246AB4648
:1000D0000CA730CF2D1B083F3F197C427F1E544494
:1000E0002D090426F441641EAC4201D300F034F81B
:1000F0000126334200D0FB1A3343984754465D46ED
:10010000DFE700006037000080370000103A02D3BC
:1001100078C878C1FAD8520701D330C830C101D5A8
:1001200004680C6070470000704700000023002442
:1001300000250026103A01D378C1FBD8520700D31E
:1001400030C100D50B6070471FB502F0E3FD02F02F
:10015000C3FE1FBD10B510BD03F06CFA1146FFF7CA
:10016000F3FF01F0FBF903F084FA03B4FFF7F2FFA9
:1001700003BC03F08BFA000030B40C490C684A68E9
:1001800023681068C0181060241D121D8C4207D20D
:100190008A4208D20C604A6030BC40004008704778
:1001A0000C00DC3CF6E70A00DC3AF3E7EC00002048
:1001B00070B584B072B600F0B7FE0420029000243F
:1001C00001943748009003263007364922462346DB
:1001D00000F00AFF02940194334800907202334801
:1001E0003349234600F000FF012500940194029555
:1001F000304829462246234600F0F6FE302000947F
:10020000019402902C482D492246234600F0ECFE32
:1002100078200094019402905520810128482246BC
:10022000234600F0E1FE70200094019402902548DE
:1002300025492246234600F0D7FE00F003FF00F0D8
:10024000F7FF01F01DF800F0CBFF7D20C1001F4833
:10025000006802F087FD401E010E0BD11C491D4AAB
:1002600050601D4803680B40B10759180160946045
:100270000720106062B61948F5210172857118498E
:10028000818064214180FA21018000F011F900F0A1
:100290007FFB0A2000F0B4FF02F026FD04B070BD21
:1002A0003303303312A80000110022110001003086
:1002B0000AAA00000002003000030030050500001B
:1002C00000040030000500305015000054010020EB
:1002D000FFFFFF0010E000E020ED00E0E002002062
:1002E000191E000080B50848F521017201218171B5
:1002F0000649818064214180FA21018000F0D8F80C
:1003000000F046FB80BDC046E0020020191E000040
:10031000B0B500F06DFA00F087FD00F067FB534DBB
:100320002878012102460A40C54C6378002B21D071
:10033000002A02D1A1710843287000F01DFCE07969
:100340002C2108422FD0800667D5287881070DD54B
:1003500047490A68402313430B60FD210840287079
:100360004448FF210171444800210160D6484349B7
:10037000016052E0002A08D0A171FE2108402870D7
:100380003B48016840220A430260CF48634901604C
:100390004348002101703B4842490160E079C32194
:1003A0000140E17139E02878810702D40221084335
:1003B000287033480168002905D00168A079C24A35
:1003C00000F088F919E02F4801682F4A914202D3C2
:1003D000628800200EE001682C4A914203D32F4826
:1003E0004268012006E00168294A914232D32B4835
:1003F00002680220B44900F0A7F9224801680029E8
:1004000004D027490978002905D102E024490022B7
:100410000A702449016001F055F800F081F800F0FD
:1004200027FB2148417862788A420DD18179A279EF
:100430008A4209D1E179C0794840BC21084203D100
:100440001A480078012804D118480021017000F0F2
:1004500039FDB0BD01680F4A9142B9D201680E4A18
:100460009142BCD200680028C1D1C6E784020020B6
:100470001C05003060020020680200200D121213DB
:10048000800200205402002089130000A10F000008
:10049000B90B0000D1070000E90300000C020020A6
:1004A0005002002070170000EA0200208C02002099
:1004B000B0B582B016480168402421430160154957
:1004C0000A6810231A430A600A6820252A430A6032
:1004D000016808220A43026001681943016001684B
:1004E000294301600C4D284602F062FA0221C02324
:1004F0002846224602F0DCFB0021284602F0DDFB04
:100500000648019001A9284602F02AFB02B0B0BDBE
:100510001C0400301C030030380200201A1A1A1A7A
:10052000B0B51148011D114AD3799B061B0F034634
:1005300000D00B461C68102525431D600C4B5478D9
:10054000002C00D01B1D1C68402525431D60D2795E
:10055000D20700D00846016820220A43026000F05A
:100560002FF800F073F8B0BD1C030030E00200204B
:100570001C040030B0B50F48011D0F4AD3799B060B
:100580001B0F034600D00B461C68102525431D6039
:100590000A4B5478002C00D01B1D1C6840252543B5
:1005A0001D60D279D20700D00846016820220A4394
:1005B0000260B0BD1C030030E00200201C040030CB
:1005C000B0B51F494A781F48002A15D08B79032BF4
:1005D00034D8021D08219B0001A4E4580346A74615
:1005E00027060000F10500001B06000021060000A0
:1005F000031D0246184615E0016810220A430260F6
:10060000016820220A430260016808220A4302604E
:10061000402103460C4A104605E0031D024602E055
:10062000021D104613461468102525431560026804
:10063000202414430460186808431860B0BDC04605
:10064000E00200201C0400301C030030F0B581B033
:100650001B480168002902D17D21C90001600068A2
:10066000184F3878184C217881420FD1787861780A
:1006700081420BD1B878A178814207D1F878E1782E
:10068000814203D111480078002816D0104D002671
:100690002846314602F013FB2846214602F060FA54
:1006A0000A4806702078617809020818A1780904C0
:1006B000E278120651180818386000BF01B0F0BD8A
:1006C00034020020DC010020000000206001002036
:1006D0003802002004280BD811A31B5CD37012A38E
:1006E0001B5C937012A31B5C537013A3185C1070F7
:1006F0001348814213D87D200301994205D91A205D
:10070000D07090705070107070470E4B994206D8A0
:10071000C0008142F3D8481E80087C28EFD970477A
:100720000F1510180A0000000F1218040E00000028
:10073000001B1702050000001A1A161A1900000003
:10074000C4090000DC050000F0B581B016460C4677
:1007500005467D20C7001046394602F00DFB20708B
:100760004743F01B01B21C4A4A43D10FD21451181F
:10077000617064224A43801A41B267224A43D10F12
:1007800092125118A1700A224A43811AE170022D77
:1007900019D0012D0BD0002D13D10020215C002990
:1007A0000FD11A212154401C0328F7D109E01A2146
:1007B0006170102121700930C0B2132801D21A20B3
:1007C000A07001B0F0BD1A216170112121700930B3
:1007D000C0B21228F3D9F4E77B14000080B50348B7
:1007E0003021312202F0A6F880BDC0463802002038
:1007F000F0B585B0604EB068DD490A68101A3278ED
:10080000904200D2B6E00868B060744800685B4966
:1008100009680024B47074700125800701D5E34392
:1008200000E0EB4302220807009200D493430193B7
:10083000D8B20490B7792B460295294625460394F1
:100840000A4604980240394207D0002A05D10D43D8
:10085000757030190679761C0671084638401043C9
:1008600005D1454E30190279521C027108E0504200
:1008700050413942029A404E00D10246012A02D12B
:100880003019027908E0C8B2039A02430392B270A9
:1008900030190279521C0271D0B240087D2802D36F
:1008A0003019FA2202710806C10D01240020DA076E
:1008B0000346C5D10198B07172793379502B07D3B3
:1008C000002A05D1F178C80702D101200143F17057
:1008D000039DE8070CD0F178C80704D1D3484378CA
:1008E00001245C40447000233371FE200140F1700C
:1008F000002B15D1502A13D3F078810710D400991A
:100900000843F070C9484078002809D01C48017895
:1009100001244C400470012902D01A481A49016090
:10092000A80712D4502B25D3502A23D3F178880757
:1009300020D116480122027003200143F170F648CD
:10094000C17980220A43C27114E0F17888070CD47F
:10095000002A0AD0F04A5078002806D09079431C2B
:10096000D8B2032800D90023937100207071FD20B4
:100970000140F17005B0F0BD040000201403003008
:100980005002002054020020881300008C02002036
:1009900010B511490868C00705D1104800688208E1
:1009A0002020104000E020200D4AD379DF241C4095
:1009B0000443D47109680B4A1378FE241C4089074C
:1009C000C90F0919117008490A78FD23134000095D
:1009D0001843087010BDC0461404003014050030E0
:1009E000E00200205802002084020020F0B581B00F
:1009F0001A4D29681A480268511A09097D292BD312
:100A0000006828600024204600F0FAFB02F0EBFCAE
:100A1000144B224602F0EAFC134E2246334602F003
:100A200071FA02F093FC0746012000F0E9FBAF6089
:100A300002F0D9FC22460B4B02F0D8FC224633468A
:100A400002F060FA02F082FCE860FFF795FB0B21F0
:100A500002F092F90548418001B0F0BD6C0200201F
:100A6000DC02002000C8A94000FEAF40E0020020E8
:100A700070B5284E316828480268511A322948D387
:100A800000683060062000F0BBFB717949007118E6
:100A9000C880072000F0B4FB71794A1C72714900CC
:100AA00071184883D0B209281FD900207071708B4B
:100AB000F4880821725AA4187218928A8018891C26
:100AC0001A29F7D10A25294602F04CF9706320460D
:100AD000294602F047F9306380B202F035FEB06378
:100AE000B08E02F031FEF06300E0F06B4B21C900E4
:100AF000884201DC002000E00120B26B8A4201DC68
:100B0000000100E010200549CA79EF2313401818AE
:100B1000C87170BD9C020020DC020020E0020020B1
:100B200010B5124C216812480268511A32291BD3A1
:100B300000682060052000F063FB0E494A79521CD2
:100B40004A7121794A00A218D0800A290CD30020CA
:100B50002071E0880821625A8018891C1A29FAD16C
:100B60000A2102F0FFF8E06110BDC046E00100205C
:100B7000DC0200209C020020B0B5284842682849C9
:100B80000B689A1A652A1AD30968416025490A68D0
:100B9000D20705D1244A1268930820221A4000E0A7
:100BA0002022224BDC79DF2525401543DD710968C1
:100BB0000278FE2313408907C90FC91801701C4829
:100BC0004168322904DB1949CA790421114305E03F
:100BD000312905D01549C97904229143134AD171AD
:100BE0000068502804DB1148C1790820084305E05B
:100BF0004F2805D00D48C079082188430B49C8719A
:100C00000C48703002F0CCFD0B49884201D800201E
:100C100000E0012009490870B0BDC046580200201C
:100C2000DC0200201404003014050030E002002033
:100C30000C02002064010020B10900000402002021
:100C4000B0B5242033490A5C042A62D87A44127968
:100C500052009744024C28300D008B692F4A1468CB
:100C6000E31ADB087D2B54D312688A6101224FE01E
:100C70000B6A0022002B4BD00B7F002B49D00B7A44
:100C80004C7AE3188C7A1B19CC7A1B19DBB20C7BDB
:100C9000A3423DD10B7A204C63718B7A23711F4B99
:100CA0001B688B6134E08A691C4B1B689A1A142AF2
:100CB0002FD903222CE000220A750A724A728A7226
:100CC000CA720A7332230B620A7703229203144B0F
:100CD0001C6894430122D50364191C600F24240767
:100CE0009D68A5435207AA189A60042210E00322C7
:100CF00092030B4B1C68944301229203A2181A60C2
:100D00001A6A802414431C62044A12688A6102220F
:100D10000A54B0BD0C020020E0020020DC020020DA
:100D2000000400303A4801683A48016101698D29A0
:100D300004D30169B32901D800210175017D00297F
:100D40000FD0017D08290CD8017A49000172016990
:100D5000652951D301698B294ED8017A491C01724A
:100D60004AE0017D09290FD3017D10290CD8417A71
:100D700049004172016965293ED301698B293BD83D
:100D8000417A491C417237E0017D11290FD3017D61
:100D900018290CD8817A49008172016965292BD301
:100DA00001698B2928D8817A491C817224E0017D50
:100DB00019290FD3017D1F290CD8C17A4900C172AE
:100DC0000169652918D301698B2915D8C17A491C95
:100DD000C17211E0017D20290ED3017D28290BD895
:100DE000017B490001730169652905D301698B29DC
:100DF00002D8017B491C0173017D491C0175017DED
:100E0000292903D300210175012101777047C046CC
:100E10000C2200400C02002080B5024802F078FC51
:100E200080BDC0466401002010B51C4802F055FC8E
:100E3000002831D01A4C21460831184802F02DFC08
:100E40002078FA2812D1207AF5280FD115480121EF
:100E50000170607814494870A0798871E0790322A4
:100E60000240C879FC2303409818C8716078A178C3
:100E700009020818E17809042279120651180818A5
:100E800020606079A17909020818E1790904227AC1
:100E9000120651180818606010BDC046F402002008
:100EA000900200208C020020E0020020491E07D0A2
:100EB000002243780370401C521C93B29942F8D828
:100EC0007047C046F0B581B000270F4C0F4E104D53
:100ED000F15DE95560698006FCD5204601F09DFA78
:100EE0007F1C092FF4D10B480068002809D1072086
:100EF0003056002805D57F210840F071E879084078
:100F0000E87101B0F0BDC04600410040E0020020A1
:100F1000EA02002088020020024800210184418466
:100F20007047C046F402002010B50F20002421466F
:100F300000F084FD204600F0D1FD0420214600F0A1
:100F4000D7FD044804490160044801600B2000F00B
:100F500085FD10BD58010020005A62025401002096
:100F600010B53F200024214600F0EAFD03200107D0
:100F70000C600C61CC608C604C608C61144A0A601F
:100F800040020861CC60134888604C608C61124854
:100F9000012101600461C4608460446081610F4884
:100FA000052101600461C4608460446084610C4870
:100FB00004600461C4608460446084610948046022
:100FC0000461C460846044604021816110BDC046FA
:100FD0000AAA0000110022110002003000030030B4
:100FE0000004003000050030F0B582B001920D24FD
:100FF000240707190824E741099A089E079D052F31
:1010000009D80091B90008A779580D4F3F680F43E0
:1010100000990B4C276046608560C360019B0361AB
:101020008261016002B0F0BD01000000020000001A
:101030000400000008000000100000002000000074
:1010400020180040B0B582B06A46282050800020A9
:101050009080907112481080124C0125204629463C
:1010600000F0BAFD204629462A4600F0E5FE206839
:101070000421014321600C480168C0220A433F213A
:101080008A43026028020949086000F0A7FB206833
:10109000284320602046294600F0E5FE02B0B0BD9E
:1010A000FFFF00000022004008E400E000E100E053
:1010B00010B584B001AA282090800020D080107242
:1010C0005080FA201080054C0321204600F084FD5A
:1010D0000121204600F0C7FE04B010BD00230040EF
:1010E00070B584B001AA00269671282050809680A1
:1010F00001251570114C2046294600F0CDFE2046F2
:1011000029462A4600F064FF204631462A4600F070
:101110005FFF0B486060204600F08BFF20462946A9
:1011200000F077FFE8030749086000F057FB04214F
:10113000204600F098FF04B070BDC0460025004076
:1011400040420F0000E100E070B50124600400257A
:10115000294600F039FDE004214600F0F7FC134E6B
:101160003046294601F016F81149304601F01EF8C4
:101170003046294601F022F83046294601F026F88B
:101180003046294601F02AF80A48306210213046DC
:101190002A4600F0D1FF4F23304629462A4601F067
:1011A00025F8E103304600F0D3FF70BD0024004075
:1011B000204E000000046CE0B0B584B0012400258E
:1011C0002046294600F000FD01A84580047003492F
:1011D0000391029101F030FB04B0B0BD50C3000098
:1011E00080B584B005200390002002900190034850
:1011F00001A900F021FA04B080BDC04600300040D3
:1012000010B50146094C204600F050FA204600F087
:1012100059FA204600F076FAC006FAD5204600F0CA
:1012200067FA204600F072FA10BDC0460030004058
:10123000B0B584B06C46204601F086F8E12040024B
:1012400000900C4D2846214600F0FCFF00210124AF
:101250002846224601F086F807480168C0220A4362
:101260003F218A43026020050449086000F0B6FA75
:1012700004B0B0BD0041004014E400E000E100E033
:1012800070B588B00020079006900190E1204002E0
:101290000090032605960F4C6946204601F022F97E
:1012A0000125204629462A4601F00AFAFF200006B9
:1012B00009490A688243B00710180860E802074924
:1012C000086000F08BFA2046294601F041FA08B088
:1012D00070BDC0460038004008E400E000E100E0D6
:1012E00000207047704700207047C04670B5154E0B
:1012F00003240025304621462A4600F0B6FA30463F
:1013000021462A4600F0E0FA022601233046214613
:101310002A4600F001FA28463146224600F01EFA1D
:10132000094800F069FAFF20000608490A6882436C
:10133000A0071018086006490820086000F04EFA5F
:1013400070BDC04600020030FF0F000000E400E066
:1013500000E100E0FEE700001A480168491C016056
:1013600019480168002902D00168491E0160174828
:10137000016A002902D0016A491E0162144801680D
:10138000002902D00168491E016012480168002945
:1013900002D00168491E01600F480168002902D08F
:1013A0000168491E01600D480168002902D00168EA
:1013B000491E01600A480168002902D00168491EDF
:1013C00001607047DC020020080200200C020020AF
:1013D0005402002068020020800200203402002015
:1013E0008802002010B5094C2068000703D520684A
:1013F0000821014321602068400705D5FFF792FCD2
:10140000206804210143216010BDC0460022004035
:10141000B0B50A4C25682807810F0ED0002803D5E7
:101420000821204600F01FFE680703D5042120464E
:1014300000F019FE204600F0FCFDB0BD0025004084
:1014400070B582B0124CA1680E200840062818D052
:1014500004281BD101A901220023204601F016F81F
:10146000002813D00B4D01AE3178284602F026F942
:10147000012200232046314601F008F80028F2D16D
:1014800004E06069C006000F00D0FEE702B070BD46
:1014900000410040F402002010B582B0074C204605
:1014A00001F066F9800607D501A901220023204634
:1014B00001F099F90028F7D102B010BD00380040C2
:1014C000704770471A488079002805D01949097873
:1014D000012817D1002915D118480079FF280AD012
:1014E000002808D001280CD11348416840220A4343
:1014F0004260FF2000E00120104908711048006898
:1015000008607047022242400123594011434A4279
:101510004A410328E0D0002ADED107480168402272
:101520000A43026005480079FF28D9D1E9E7C0469F
:10153000E0020020040200201C05003060020020B0
:10154000DC0200200348FF210171034909680160A2
:101550007047C04660020020DC020020FEF728FE33
:10156000FEF7D6FEFCE7000010B5154801688907B4
:10157000090F14A25158174A116003689B0704D140
:1015800043689B049B0FD9401160846807231C406B
:10159000052C06D3816804240C4303218C4384600A
:1015A000116882681A4004239A1AD1400A4A1160CD
:1015B000C06803220240D1400848016010BDC04607
:1015C00000180040005A62020024F400008000006D
:1015D000409C00007C0200205401002058010020A3
:1015E00004480168C9B25529FBD172B602480349C3
:1015F0000160704728F00040001A0040A095695A29
:101600000748804707480047FEE7FEE7FEE7FEE79A
:10161000FEE7FEE704480549054A064B704700000F
:10162000E1150000B100000018030020180600209A
:10163000180400201804002070B5002818D00D46AA
:1016400004460126B002314600F08CFAF003206017
:101650002968C907490D6A685207920C5118081881
:1016600010302060A8681F210140A160002070BDDB
:10167000012070BD10B5002807D0002404600120AF
:101680008002214600F06EFA00E00124204610BDE1
:10169000002809D04A1E91414901026820239A433B
:1016A000511801600020704701207047002807D0C2
:1016B0000F221140036893435918016000207047BE
:1016C00001207047002806D00121090202680A4360
:1016D00002600020704701207047002806D00121D9
:1016E000090202688A4302600020704701207047A7
:1016F000002805D0016810220A43026000207047CC
:101700000120704701681020084070474168014877
:1017100008407047FF0F000070B50E4C0E4D0128B9
:1017200008D0042804D0022813D1241D2D1D01E067
:101730000C340C358A40012088402E6886431643BD
:101740002E6048008340032181402068884318436D
:10175000206070BD0411004004100040B0B51A4B69
:10176000072A11D803282DD8800002A420581C462F
:101770008746C046B517000085170000A517000072
:10178000AD1700001C1D15E003281BD81C461034A3
:10179000083AC04678440079400087440B010509A7
:1017A000143306E0083304E0183302E00C3300E0A1
:1017B0001C331C46900081400F22824020689043D9
:1017C00008432060B0BDC0460013004002490A68CB
:1017D00082430A607047C0460014004002490A680C
:1017E00002430A607047C046001400400149086087
:1017F0007047C04604120040014908607047C04667
:1018000008120040014908607047C04610120040AD
:10181000014800687047C046041200400148006853
:101820007047C04608120040014800687047C04633
:10183000101200400160426083600099C16001990C
:1018400001617047B0B5082901D30C2300E00823DB
:10185000C4588D00082900D3203DE9B20F258D40E2
:10186000AC438A402243C250B0BDB0B5032A01D078
:10187000134600E001234C06240EA3400325A54097
:101880000468AC431C43046002231343032B08D1B8
:1018900001238B404168032A01D0994300E019439A
:1018A0004160B0BD8A4001238B40416A9943114396
:1018B000416270474906090E8A4003238B40016943
:1018C000994311430161704710B507231B04846AD3
:1018D0009C4301238B4013432343836210BDC161AA
:1018E00070470162704781617047406980B27047FC
:1018F000024908683F220A607047C0461CF0004059
:10190000014908607047C04620F000400348416824
:10191000C9B2552901D002490160704724F0004046
:101920002D00B39E014908607047C04630F000406A
:10193000B0B5002801D0102200E00F221F2100289E
:1019400001D00C4600E00124094805682B460B40F5
:10195000934200D02B190B400168E0220A40D118B5
:10196000FF2202324A43034951400160B0BDC046E4
:10197000A8F0004000FFB5A610B515490C680A682C
:10198000F0231A40002808D0641E072020400328B6
:1019900015D1802A0AD0032009E0641C07202040CA
:1019A00004280CD1702A06D0042005E00420802AE7
:1019B00005D0103A03E00320702A00D010321A40FC
:1019C0001018FF220232424302485040086010BD06
:1019D000ACF0004000FF3D4C10B5084A13681B07EF
:1019E00003D41368064C1C43146008430C210143C4
:1019F0001161106980210143116110BD041800407C
:101A0000080007A50448016860229143016001684D
:101A1000802291430160704714180040B0B5054B17
:101A20001C680F2525400843104328430249014301
:101A30001960B0BD04180040000007A50843044920
:101A40000A68044B13400343034818430860704777
:101A500004180040FFCF0000000007A503490A68F2
:101A600092B2034BD21882430A60704704180040B8
:101A7000000007A50A498A68FF239A438A600A6919
:101A8000084B1A400A610A681A400A600A680A2369
:101A900013430B6004490143044801607047C0468A
:101AA00000050030F0FFFF000000379B8018004069
:101AB000FF200102074882688A4382600169064A62
:101AC000114001610168114001600168A0220A43D0
:101AD00002607047000500300FFFFF00024901431C
:101AE000024801607047C04600000A5700180040D5
:101AF000014A106051607047081800400F2001042F
:101B0000084882688A4382600169074A114001617E
:101B10000168114001600121490202680A43026024
:101B20007047C04600050030FFFCFF00084310432B
:101B300080210143014801607047C04610180040F1
:101B4000014A10605160704720180040044A002983
:101B500002D01168014301E01168814311607047B0
:101B600020180040044A002902D01168014301E016
:101B7000116881431160704724180040054A1060C5
:101B800051600A2000BF401EFCD100201060506050
:101B90007047C04660180040044908600A2000BF32
:101BA000401EFCD1002008607047C046601800400D
:101BB000044908600A2000BF401EFCD100200860D4
:101BC0007047C04664180040EB4A136883431360B3
:101BD000106808431060704770B515460E460446FD
:101BE000444884420ADC4948844213DC0120002C2A
:101BF0007FD049498C422AD1000425E03E488442E6
:101C000011DC4048844217D03F4884421FD1012054
:101C1000400219E03E48844211D03E48844216D129
:101C20000120800410E0354884420BD034488442BF
:101C30000DD10120C00207E00120000204E00120D4
:101C4000400401E0012080020121FFF77FFF002E08
:101C500011D0012031468143022917D13003E9799F
:101C60008A030243A87900021043012925D1297A69
:101C7000C902014322E0E9798A03A87900021043EE
:101C8000012913D1297AC902014310E0012E2BD179
:101C9000287980016A7991030B182048411C194367
:101CA000012A17D1AA79D2020A4314E0014688B268
:101CB0002060A888401E194911E0014688B22060C2
:101CC000A888401E15490140216128886060AD1C2C
:101CD000082007E00A4691B221606988091801408E
:101CE00021610420298821502068012101432160BD
:101CF000002070BDFF260040FF2800400029004062
:101D0000002A00400027004000280040FF2100403A
:101D1000002200400023004000210040FF0F00008F
:101D200070B5002800D158E00446002505603B4806
:101D300020180826F041092800D96BE07844007982
:101D40004000874404182B6767673D4C58610120A9
:101D5000000400252946FFF7F9FE31482018F0411C
:101D6000082857D878440079400087440417535313
:101D7000532938444D000120400400252946FFF72F
:101D8000E5FE28482018F041072843D87844007918
:101D900040008744033F3F3F152430390120800431
:101DA00000252946FFF7D2FE1F482018F0410328DE
:101DB00030D8C046784400794000874401101C2583
:101DC0000126300200252946FFF7C0FE194884424B
:101DD00022D01748844214D10DE001251AE00120D9
:101DE000400200252946FFF7B1FE104884420BD07F
:101DF0000F4884420ED10120800200252946FFF7BA
:101E0000A5FE0A48844205D10120C00200252946CA
:101E1000FFF79CFE284670BD7002F7E700DFFFBFAA
:101E200000DEFFBF00DDFFBF00D9FFBF002A00407A
:101E3000002900400028004010B5002806D04C1EA4
:101E400063426341002903D0190102E0012010BD63
:101E50002021012A02D102680A4301E002688A4374
:101E60000260002010BD00280BD0491E4A424A41A2
:101E7000D1030122D2030368934359180160002063
:101E8000704701207047002803D0016002610020E4
:101E9000704701207047000070B5012300284CD026
:101EA000354C364DA84205D0354B984208D1012318
:101EB0005B0500E01B052546203D2E681E432E6075
:101EC000002915D001230D469D43022D37D1157AE7
:101ED0001B0526689E43EB07DB0A9B192360090359
:101EE000137B9B030B43517BC902194389B20EE05C
:101EF000117A01231B0525689D43C907C90A4919A1
:101F00002160117B8903537BDB020B4399B2937BE6
:101F10001B020B43D17B8901194301605189491E82
:101F2000184B0B40036111684160516808228150D1
:101F3000016801220A4302600023184670BD01298E
:101F4000F6D111781D052668AE43C907C90A89195B
:101F50002160517989031479A4016118947964028C
:101F60000C431903214389B2016051884A1E054977
:101F700011401022DBE7C046401800400025004019
:101F800000260040FF0F000000280ED0014601206F
:101F9000C0030A6882430A600020094A914206D0C1
:101FA000084A914208D1084902E0012070470349DC
:101FB000064A13680B4013607047C046FFFFEFFFEF
:101FC0000025004000260040FFFFDFFF20180040F2
:101FD00000280CD00346002001290AD0002917D17F
:101FE000002A0ED0012A13D11A68202107E001200F
:101FF0007047002A08D0012A0AD11A68102111431B
:1020000005E01968202201E0196810229143196047
:10201000704700280BD0491E4A424A41D103012291
:10202000D2030368934359180160002070470120D0
:102030007047002806D00168016801220A43026047
:102040000020704701207047002807D00346002079
:10205000002905D0012905D1082102E0012070479F
:1020600004215A507047002806D00D221140026802
:102070000A43026000207047012070470068C0B228
:102080007047C06870470000B0B5002821D0124AE0
:10209000904205D10122D204104B1C6814431C60ED
:1020A0003CC912039B031343E2021A43AB011343DF
:1020B00003600A8842604A8882608A88C260CA884F
:1020C000026109898161016801220A4302600020DE
:1020D000B0BD0120B0BDC046002400402018004023
:1020E00000280AD001460122D0030B6883430B600D
:1020F0000020064B994202D0704701207047D1045E
:10210000034A13688B4313607047C04600240040A5
:1021100020180040002805D0012905D1816A11430B
:10212000816206E001207047816A91437F220A4064
:10213000826200207047C046002805D01143034A40
:102140000A43026000207047012070470120000010
:1021500000280BD00122D203891A4B424B41D903EC
:1021600003689343591801600020704701207047AD
:10217000002803D0012903D0054902E0012070475F
:10218000024913430B43036200207047003F6CE099
:1021900000006CE0002804D0034A11408161002057
:1021A000704701207047C046FF0F0000002803D091
:1021B00089B241600020704701207047002803D099
:1021C00089B281600020704701207047002803D049
:1021D00089B2C1600020704701207047002803D0F9
:1021E00089B20161002070470120704710B50028B6
:1021F0000BD00A430321090204688C431443046092
:1022000003490B404362002010BD012010BDC046B1
:10221000FF030000002802D0016300207047012066
:102220007047002803D0416382630020704701207B
:102230007047002802D0C16200207047012070471B
:10224000C06A7047F0B581B000283AD00E46044607
:102250002C48844204D02C48844207D1082000E056
:1022600004200121FFF77EFC00E020686069C007C0
:10227000FBD160698006FCD500206060E0600090C2
:1022800020616069A06821480768306845013846C8
:10229000294600F067FD81B221626843381A0002C6
:1022A000294600F05FFDC0B26062E168402008404E
:1022B000716800290BD0022905D0012905D101211F
:1022C00004E001201BE0022100E003210843B16883
:1022D00000290DD0042907D0032903D0022905D1F4
:1022E000182104E0282102E0382100E008210843F9
:1022F000F168012901D104210843E060009801B090
:10230000F0BDC046004000400041004058010020A0
:1023100010B5002811D00A49884204D009498842E2
:1023200009D1082400E004242046FFF741FC0021E5
:102330002046FFF717FC002010BD012010BDC0464D
:102340000040004000410040002809D00146002024
:1023500003224B235B020B604A608860C8607047B1
:1023600001207047002806D0491E022905D889009F
:1023700008A3595802E0012070470121012A02D127
:1023800042680A4303E00F22514042680A4042601B
:102390000020704702000000040000000800000058
:1023A000002805D0032905D8890009A3595802E05F
:1023B000012070470021012A02D102690A4303E08B
:1023C0001C22514002690A40026100207047C04649
:1023D0001000000008000000040000000C000000D5
:1023E000002805D002460020072900D81163704755
:1023F00001207047002805D0C16840220A43C2600E
:10240000002070470120704741697F2008407047D5
:1024100040698109012088437047002802D001608B
:1024200000207047012070470068C0B27047C04666
:10243000F0B5012B1AD10023002A13D0124C1546F7
:1024400027463E464769BF0602D4771C002EF8D1C6
:10245000002E07D00E7806605B1C6D1E491C002DF7
:10246000EED1134641694906FCD50BE00023002A52
:1024700008D04469A40605D5CC5C04605B1C9A4274
:10248000F7D113461846F0BD0100FFFFF0B5044632
:10249000012B16D1002A21D00020114B15461F46D2
:1024A0003E466769FF0702D1771C002EF8D1002E47
:1024B00013D026680E70401C6D1E491C002DEED1F5
:1024C0000AE0002A0AD000206369DB0705D02368F0
:1024D0000B54401C8242F7D11046F0BD0020F0BDE5
:1024E0000100FFFF70B50D4604462F4884420ADD07
:1024F0002E4884420ED02E4884420DD02D4884426E
:1025000012D1022609E00126002C4AD02A48844232
:1025100003D009E0202600E0102601213046FFF715
:1025200021FB3046FFF744FB24480068244908603B
:10253000696804260029314600D00121C840296875
:1025400000F010FC401E80B22061A8698007800C5A
:102550006968890389B2081869694907090D401833
:10256000A968C907C90D4018E968C901C9B240186E
:1025700029698901C9B201430320084320606068CA
:10258000B0436060E8696168C007400F084360605D
:1025900060680821884360604020E060606960698D
:1025A0000026304670BDC046FF380040003B00406A
:1025B000003A004000390040003800405801002037
:1025C0005C01002002460120002A07D0C91E032911
:1025D00004D8880002A10858D06000207047C04687
:1025E00010000000200000004000000080000000FB
:1025F0004069C0B27047C04610B5114988420ADD33
:10260000104988420ED0104988420DD00F498842A7
:1026100012D1022409E0012400280ED00C4988427E
:1026200003D009E0202400E010242046FFF7C0FA80
:1026300000212046FFF796FA0024204610BDC04630
:10264000FF380040003B0040003A004000390040A5
:102650000038004000280AD00146002003224A61C9
:102660008861C8614B2252020A60486070470120AD
:10267000704710B500280ED0014600200322012328
:102680004B2464020C604B608860C8600B614A6137
:102690008861C86110BD012010BD00280DD0014621
:1026A000002003224B235B020B604A608860C860F5
:1026B00008614A618861C861704701207047C0465F
:1026C000002805D0032905D8890008A3595802E03D
:1026D000012070470021012A02D102680A4301E06B
:1026E00002688A43026000207047C0460400000070
:1026F000080000001000000020000000002805D0A5
:10270000092905D8890008A3595802E0012070471B
:102710000021012A02D142680A4301E042688A434B
:10272000426000207047C046010000000200000027
:10273000040000000800000010000000200000005D
:1027400040000000800000000001000000020000C6
:1027500000280BD0491E4A424A415102012252022E
:102760004368934359184160002070470120704727
:10277000C068C0B27047C068C10901208843704773
:10278000002802D04161002070470120704770B5D9
:102790000446012B18D1002A23D000201346002C18
:1027A00001D00D786561491C01263546E66876063C
:1027B00002D46E1C002DF8D1002D11D04025E5600B
:1027C000401C5B1EEBD10AE0002A0AD00020E3681F
:1027D0001B0605D50B5C6361401C8242F7D1104695
:1027E00070BD002070BD70B50446012B15D1002AC4
:1027F00020D00020134601263546E668B60602D4EE
:102800006E1C002DF8D1002D13D065690D70401C91
:102810005B1E491C002BEED10AE0002A0AD00020E2
:10282000E3689B0605D563690B54401C8242F7D1CF
:10283000104670BD002070BD10B5002814D00446AD
:1028400001214804FFF78EF961680C4A11400C48D9
:102850008160A1681140016161882278012A05D058
:1028600025229202114303E0012010BD054A1140C8
:10287000054A0A430260002010BDC046FFFFFF006A
:10288000001A00405F020000A001695A0248034993
:10289000016000207047C046001A0040A095695AA8
:1028A00010B5431E5A425A41002801D0D20000E020
:1028B0000422064803689BB2054C1B19012901D06C
:1028C000934300E013430360002010BD001A004052
:1028D0000000695A02486A21016000207047C04622
:1028E000141A004007490A68012804D00D2040014D
:1028F000024392B201E00448024004481018086004
:1029000000207047001A00400FFC00000000695AC8
:102910000149086000207047041A0040014800681F
:102920007047C046041A0040014800687047C0461E
:102930000C1A0040F0B500238360D3171B0FD31887
:10294000F0241C40121B4275CA17120F8A180F245C
:102950001509A2438A1A027519090B0203210C07F3
:102960001B1903612B021B19C360D4B20122154647
:10297000A5405C68AC435C60C3681C68057D6D0065
:102980001646AE400F46AF40BC4334431C6003695B
:102990005C68457D1646AE40B4435C6003691C68C4
:1029A000457D6D00AA40A9408C4314431C60F0BDD6
:1029B00080B500F001F880BDB0B5044600217F2548
:1029C0002A4600F033F9012120462A4600F02EF96C
:1029D000022120462A4600F029F9032120462A46F2
:1029E00000F024F9B0BDF0B583B00D4607460020D5
:1029F00000970190387D012102918140F8680162C1
:102A00000A26304600F066F9E80701D01C2000E0F5
:102A10002020009F797D029C22468A4039690A5015
:102A2000304600F057F9387D8440F868C46130467C
:102A300000F050F90199481C6D080729D9D3387D59
:102A4000029E31468140F86801620A2000F042F996
:102A5000787D314681403869C161387D3146814099
:102A6000F868C161386901687A7D520003252B46F8
:102A700093409943016038694269797DCA40D20721
:102A800021D00022521CD3B2C82B10D149003246AB
:102A90008A402B468B400168994311430160787D41
:102AA0003146814038690162797D386900224900E8
:102AB0002B468B4001689943016038694369797DF1
:102AC000CB40DB07DED10A2000F004F93869016849
:102AD0007A7D520096409540A9433143016003B08E
:102AE000F0BD70B50446007D012631468140E068A6
:102AF000C1610A25284600F0EDF8607D314681402D
:102B00002069C161284600F0E5F8607D31468140CA
:102B100020690162284600F0DDF8207D8640E068EB
:102B2000066270BD70B50446407D01263146814085
:102B300020690162207D31468140E06801620A25FA
:102B4000284600F0C7F8207D31468140E068C16129
:102B5000284600F0BFF8607D86402069C66170BDE0
:102B600070B582B0044608784A78120210188A7844
:102B70001204C978090689180818019020790021E3
:102B80001D4A0B4601ADEE567F2E0D4600D0955DD9
:102B90000646DE40F60701D08026354301AEF554E7
:102BA0005B1C042BEED12046FFF79BFF4021204603
:102BB000FFF719FF2046FFF7B5FF2046FFF791FF0B
:102BC00061782046FFF70FFF002501A8415D2046F0
:102BD000FFF709FF6D1C042DF7D12046FFF7A2FF78
:102BE0002046FFF77EFFA1782046FFF7FCFE204637
:102BF000FFF798FF02B070BD2438000070B50022C6
:102C0000094B14460E577F2E154600D09D5D0D557D
:102C10000679E640F60702D0802635430D55641C40
:102C2000042CEFD170BDC04624380000F0B581B04F
:102C30000E4604467F2A01D1002502E050B2164913
:102C40000D5C27792046FFF74CFF44212046FFF713
:102C5000CAFE2046FFF766FF2046FFF742FFC0216D
:102C600031432046FFF7BFFEF740F80701D0802030
:102C7000054320462946FFF7B6FE2046FFF752FFE0
:102C80002046FFF72EFFA1782046FFF7ACFE204636
:102C9000FFF748FF01B0F0BD243800007F2901D1C3
:102CA000002001E00148405C40B270472438000039
:102CB00043700270783981707047C170704701713C
:102CC000704700000249086008680028FCD170477E
:102CD00008020020002805D0242100BF491EFCD195
:102CE000401EF9D1704700000B4A30B511460B4C1D
:102CF00060310B46DC3B0CC1372106E0020C8D0035
:102D000012185A51064A504300190A46491E002A11
:102D1000F4DC30BD0120E7E78C000020E119D66625
:102D2000CD0D010001E004C0091F0429FBD28B076F
:102D300001D50280801CC90700D0027070470029AD
:102D40000BD0C30702D00270401C491E022904D3D5
:102D5000830702D50280801C891EE3E70022EEE78C
:102D60000022DFE7002203098B422CD3030A8B42A7
:102D700011D300239C464EE003460B433CD4002273
:102D800043088B4231D303098B421CD3030A8B4285
:102D900001D394463FE0C3098B4201D3CB01C01A53
:102DA000524183098B4201D38B01C01A524143091E
:102DB0008B4201D34B01C01A524103098B4201D30C
:102DC0000B01C01A5241C3088B4201D3CB00C01A79
:102DD000524183088B4201D38B00C01A52414308F1
:102DE0008B4201D34B00C01A5241411A00D2014616
:102DF0005241104670475DE0CA0F00D049420310AF
:102E000000D3404253409C46002203098B422DD3FD
:102E1000030A8B4212D38901FC2212BA030A8B42A5
:102E20000CD3890192118B4208D3890192118B42F4
:102E300004D389013AD0921100E08909C3098B4279
:102E400001D3CB01C01A524183098B4201D38B01BC
:102E5000C01A524143098B4201D34B01C01A52415F
:102E600003098B4201D30B01C01A5241C3088B42A4
:102E700001D3CB00C01A524183088B4201D38B008F
:102E8000C01A5241D9D243088B4201D34B00C01A19
:102E90005241411A00D201465241104663465B102E
:102EA00001D34042002B00D54942704763465B1076
:102EB00000D3404201B50549002802DC491C084006
:102EC00000E00846C046C04602BD00BFFFFFFF7FCE
:102ED000704770477047000008487CB57844009000
:102EE00007487844009C0546019004E020460168AC
:102EF00008188047241DAC42F8D17CBDA40900000D
:102F0000AE090000F0B5F94D0C091E092C402E4009
:102F10002F468BB0A7437DD0B543FCD0002E7AD08E
:102F2000002CFCD00D465D40ED0F2543AC1BFF256A
:102F3000AD0464190894C502440DC9022143500D23
:102F4000DC0204430120C00701430443D202019183
:102F5000200C110C00958C46010423468B430A91EA
:102F600061460904E24D8A430991010A7D444919E9
:102F70008039097805464D4301266D18F605751B05
:102F80006943C90C640B891C4C436418B5012C1BA4
:102F9000250C2E04B4434C434D43210C6918890978
:102FA0000591009DE90701D00121C90704912C4634
:102FB00001996708CD072F434C08059DE10B4D4350
:102FC0002D0C29466646754302950D4645432E460F
:102FD000029D7D1BB44100950D465D4301942C0C70
:102FE0002F040D465543AE462D0C3D4302950394E8
:102FF0007546049C2D04641B049406D2029C039D18
:10300000641C002675410395029401AC70CC009FAE
:103010007D1B01E03EE162E1B441090400950791A6
:1030200001940599A4086143090C0C464443650BBF
:10303000E7040C4666467443A646640B3C4303957E
:1030400002947446049DE4042C1B049406D2029C52
:10305000039D641C002675410395029401AC70CC5D
:10306000009F7D1BB44101940C465C430095650FA5
:10307000E7000C465443A646640F3C430395029474
:103080007446049DE4002C1B049406D2029C039D0C
:10309000641C002675410395029401AC70CC009F1E
:1030A0007D1BB441AE09AF06049DC900AD092F4395
:1030B000049DA406AD060495079D34436918079145
:1030C000059DE10B4D432D0C29466646754302953F
:1030D0000D4645432E46029D7D1BB44100950D468D
:1030E0005D4301942C0C2F040D465543AE462D0C28
:1030F0003D43029503947546049C2D04641B04947F
:1031000006D2029C039D641C00267541039502941F
:1031100001AC70CC009F7D1BB44101948C050694DA
:10312000079C890A611800950791019C0599A408DC
:103130006143090C0D464543680BEF040D46644698
:1031400065436C0B3C43049FED047D1BAC4602D2EF
:103150000025641C6841009E019D371B854108467F
:10316000584301950C46460FC5005443600F284351
:103170006546E4002C1B02D20025401C6E41019DD7
:103180003F1AB5412846BD09800628438446A00958
:10319000BF064E020699A40676180743079D002035
:1031A00068410A99079019430020099B00906046E6
:1031B000FF1913434041E20F64003A43A44604461A
:1031C000D71A8C41A04203D90120009020463A46EC
:1031D000C70F941840416246D20F224364466400F0
:1031E0000494009CBE466400D71AA4460446029785
:1031F0008C417746002F01D1A04204D96046401C83
:103200008446029A2046C40FA64694184041049A68
:103210000546D20F224364466400D31A8D4171469D
:10322000002901D1A84202D928461A46641C10433D
:103230000122002800D0164361020020079B891953
:1032400004465C410223002C02DB4918134664410A
:10325000089DCE0A2D145D194B056705E10A2C0562
:103260000D1908993E43C9076940002B08D09340C7
:1032700006D30022761C5141002B01D1760876003E
:103280001C4A002D43DB154241D0AA433FD03046B3
:103290000BB0F0BD06180D464D41174C7642AC41BF
:1032A0001AD395181C465C41134A6D42A24113D3B0
:1032B000012252054C00D4420AD15C00D4420BD00A
:1032C0004B4002D592021143E2E749004908DFE78B
:1032D0005940C90FC90718E000200849D8E7054838
:1032E00001420DD10342F7D0F2E700000000FF07D2
:1032F000340800000000F07F0000E0FF0000F87FCD
:10330000114859400143C01241400020C0E7012349
:10331000089A9B069A4205DC032252078918C90FB6
:10332000C907B5E7052252078918074A1143D21287
:103330005140ADE770B515461C4602460B4628467F
:103340002146FFF7DFFD70BDFFFFFF7F0346CA0286
:10335000400D10B510430A1504D00124E4072043A2
:10336000002A05DB0A4CA21A04D4D040FF2A00DD53
:10337000002010BD4A00002B01D0012000E00020F9
:10338000101801225205D042F2D8C817C04310BD10
:103390001E0400001F22030C02D10F22000402D0E1
:1033A000030E03D004E00020014670470002083AF3
:1033B000030F01D10001121F830F01D18000921E63
:1033C000002801DB4000521E120551184205C012B0
:1033D000411810467047C10FC90700D04042012272
:1033E00092071143D6E701218907D3E7F0B58B4C4B
:1033F0000F09254689B0BD437BD01D092646AE4343
:10340000FAD00E465E402740F60F3E43254071D06D
:1034100024012142FBD0FF24AD19A4042D1B0395E8
:1034200001252D05DB02DB0AC9022B43C90A29430A
:103430001E010901040F130F050121431701880B19
:10344000820391432D098C46A90B1E438A039543A1
:10345000B30B9A0396433F09BA0B9403A743029612
:103460002E467E430497B6464E19D7190C46019650
:10347000544305977E43371B7646BF1B3601B6463D
:10348000BE0B361900967646BC043719009C01D352
:10349000641C00946400002F01D001263443029E76
:1034A000049F754366467E430496760034196E0089
:1034B00034190094029C019E1C196643751BAE468C
:1034C000069465464519059C05956C435943754618
:1034D0000891691A0191049E01465143A41B04916D
:1034E000611A009C0791E10605D061090122114390
:1034F00002E072E06EE06109089D00272C0A2D06AB
:103500006918049D7C412A0A2D066918019D6241B3
:10351000AC0DAD026D185441079A910D92025519E8
:103520006141029A644658435443069B059A5A43A4
:10353000121A131B9A0E9B015B187A41010B0005AE
:10354000C3185141220A200644195A419A4200D216
:10355000491C01204002814203D315230226F64371
:1035600002E014230326F6432020C51AA94017467B
:10357000AF40DA400A4320460399D8400914731833
:1035800019055118039A3843D2075140AC4009D06D
:103590000122944006D30022401C5141002C01D14D
:1035A000400840001E4A934212D30122039892061B
:1035B000904207DB0520400709181A480143C01252
:1035C000414004E0032040070818C10FC90700204C
:1035D00009B0F0BD0020F107FAE705180C464C4190
:1035E00011486D42A04115D394181A465A410E480D
:1035F000644290410ED301204A004005824209D323
:103600005A00824206D35940C90F084AC907002010
:103610001143DDE700200649DAE700000000FF075C
:10362000FE070000FFFFFF7F0000E0FF0000F07FCB
:103630000000F87F754600F025F8AE4605006946A3
:103640005346C008C000854618B020B5FDF7E2FF1C
:1036500060BCB64600260027C0C5C0C5C0C5C0C5F1
:10366000C0C5C0C5C0C5C0C5403D490849008D465C
:10367000704710B50446C046C0462046FCF775FDAD
:1036800010BD000000487047F400002001491820D8
:10369000ABBEFEE726000200704710B5028C438CDB
:1036A0009A4207D0448C045D0C70418C491C1F2445
:1036B0000C404484D01A411E884110BD10B5028CC4
:1036C000531C1F221A40438C9A4202D0048C01558D
:1036D0000284D01A411E884110BD018C428C914257
:1036E00004D2418C008C401A203002E0018C408CC6
:1036F000081A80B2704710B504460020208460612B
:10370000A061E16114212046FFF72AFB204610BD8D
:10371000B0B504460720A0700A482080201D00256F
:103720002946FFF7E8FF204628302946FFF7E3FF48
:1037300020464C302946FFF7DEFF742025542567CC
:103740002046B0BD05060000B0B51249884201D937
:103750000F481BE06A2802D24B20000116E00E4CF5
:1037600000210E4A535A984203D855186D88A84232
:1037700005D8891C643C2029F4D1002006E0E91A10
:10378000C21A64205043FFF7F7FA001B00B2B0BD25
:1037900070FE00009A0F00009001FFFF403800000B
:1037A000008C704780807F7E7D7C7B7A797877760D
:1037B00076757473727171706F6E6E6D6C6C6B6A0E
:1037C0006A696868676666656464636362616160AC
:1037D000605F5F5E5E5D5D5C5C5B5B5A5A59595829
:1037E0005857575656555555545453535252525193
:1037F000515050504F4F4F4E4E4D4D4D4C4C4C4BE9
:103800004B4B4A4A4A49494948484847474747462F
:10381000464645454544444444434343434242426B
:10382000424141413F065B4F666D7D077F6F777C6C
:10383000395E797178765C5040665406743E005E5D
:103840009B0F6F0F1E0F8F0EA50D330C3B0A040844
:1038500000064E040303170274010701BD008C002B
:1038600069000000983800000000002010000000EF
:103870000C010000A838000010000020080600001D
:103880002C01000059CFFFFF91D5FFFF8DD6FFFF20
:10389000B5DCFFFF000000001A1A1A1A32000000FF
:0838A0000000FF000000000021
:020000041FFFDC
:10F2000073A2C869FFFF0000FFFF0000DB96FFFF4D
:10F21000FFAAFFFFFFFFFFFFFFFFFFFFFFFFFFFF53
:10F22000FFFFFFFFFFFFFFFFFFFFFFFFFFFFFFFFEE
:10F23000FFFFFFFFFFFFFFFFFFFFFFFFFFFFFFFFDE
:04F24000FFFFFFFFCE
:020000041FFFDC
:10F40000E2E2E2E2FFFFFFFFFFFFFFFFFFFFFFFF80
:10F41000FFFFFFFFFFFFFFFFFFFFFFFFFFFFFFFFFC
:10F42000FFFFFFFFFFFFFFFFFFFFFFFFFFFFFFFFEC
:10F43000FFFFFFFFFFFFFFFFFFFFFFFFFFFFFFFFDC
:10F44000FFFFFFFFFFFFFFFFFFFFFFFFFFFFFFFFCC
:10F45000FFFFFFFFFFFFFFFFFFFFFFFFFFFFFFFFBC
:10F46000FFFFFFFFFFFFFFFFFFFFFFFFFFFFFFFFAC
:10F47000FFFFFFFFFFFFFFFFFFFFFFFFE2E2E2E210
:020000041FFFDC
:10F60000E3E3E3E3FFFFFFFFFFFFFFFFFFFFFFFF7A
:10F61000FFFFFFFFFFFFFFFFFFFFFFFFFFFFFFFFFA
:10F62000FFFFFFFFFFFFFFFFFFFFFFFFFFFFFFFFEA
:10F63000FFFFFFFFFFFFFFFFFFFFFFFFFFFFFFFFDA
:10F64000FFFFFFFFFFFFFFFFFFFFFFFFFFFFFFFFCA
:10F65000FFFFFFFFFFFFFFFFFFFFFFFFFFFFFFFFBA
:10F66000FFFFFFFFFFFFFFFFFFFFFFFFFFFFFFFFAA
:10F67000FFFFFFFFFFFFFFFFFFFFFFFFE3E3E3E30A
:04000005000000B146
:00000001FF
