:020000040000FA
:10000000B8050020C9150000D1150000D315000067
:1000100000000000000000000000000000000000E0
:10002000000000000000000000000000D5150000E6
:100030000000000000000000D7150000891100003A
:10004000DB150000DB150000DB150000DB150000F0
:10005000DB150000DB150000DB150000DB150000E0
:1000600015120000DB150000DB150000C9120000AE
:10007000DB150000DB150000DB150000411200005D
:10008000DB150000F1120000DB150000DB1500009D
:1000900071120000DB150000DB150000DB1500000D
:1000A000DB150000DB150000DB150000DB15000090
:1000B00000F002F800F050F812A030C808382418F8
:1000C0002D18AC4201D100F047F80FCCA246AB4648
:1000D0000CA730CF2D1B083F3F197C427F1E544494
:1000E0002D090426F441641EAC4201D300F034F81B
:1000F0000126334200D0FB1A3343984754465D46ED
:10010000DFE70000FC2E00001C2F0000103A02D395
:1001100078C878C1FAD8520701D330C830C101D5A8
:1001200004680C6070470000704700000023002442
:1001300000250026103A01D378C1FBD8520700D31E
:1001400030C100D50B6070471FB502F0C7FD02F04B
:10015000A7FE1FBD10B510BD02F0B8FE1146FFF797
:10016000F3FF01F0DFF902F0D0FE03B4FFF7F2FF76
:1001700003BC02F0D7FE000070B584B072B600F088
:10018000EBFD0024029401943648009003263007CA
:1001900035492246234600F03FFE0294019433483D
:1001A0000090720232483349234600F035FE0125A3
:1001B000009401940295304829462246234600F0D7
:1001C0002BFE30200094019402902C482C492246AA
:1001D000234600F021FE78200094019402905520DF
:1001E000810128482246234600F016FE7020009424
:1001F00001940290244825492246234600F00CFE33
:1002000000F038FE00F02CFF00F052FF00F000FF7D
:100210007D20C1001E48006802F088FD401E010ECE
:100220000BD11C491C4A50601C4803680B40B107A5
:100230005918016094600720106062B61848F521D3
:1002400001728571174981804480FA21018000F094
:1002500035F900F069FB0A2000F0EAFE02F028FD03
:1002600004B070BD3303303322A800001103221103
:10027000000100302AAA0000000200300003003014
:100280000505000000040030000500305015000096
:1002900054010020FFFFFF0010E000E020ED00E02F
:1002A0009C020020191E0000F0B581B000F064FA35
:1002B00000F0CCFC00F05AFB00F0E0FB6E4D28781B
:1002C000012601463140CE4C6278002A17D0002921
:1002D00002D1A6713043287000F092FBE2792C2005
:1002E000024235D008200421930641D4114069D13F
:1002F000024000D196E00220DA49502265E0002950
:1003000018D0A671BD490A68402313430B600A68E0
:10031000202313430B60594A1368334313604A6820
:10032000042313434B60FE221040287048680822C3
:1003300002434A60CB487E4901605C48002101705D
:1003400053485B490160E079C3210140E17169E0F4
:100350002878810702D40221084328704B4801689D
:10036000002935D00168A079BE4A00F081F949E042
:100370002A78930722D5A14B1C6800944027009C43
:1003800027439F4C1F601B6800932027009B1F433F
:100390009A4B1F60394F3F683743384E37605E686D
:1003A00006435E60586808435860FD2002402A708A
:1003B0003348FF210171334800210160A9483249C7
:1003C00001602FE00120A749322200F081F929E0E5
:1003D0002F4801682F4A914202D3628800200EE024
:1003E00001682D4A914203D32F484268012006E05C
:1003F00001682A4A914233D32B4802680220994966
:1004000000F066F922480168002904D027490978DC
:10041000002905D102E0254900220A702449016023
:1004200000F068FF00F086F800F0E2FA2148417819
:1004300062788A420DD18179A2798A4209D1E17923
:10044000C0794840BC21084203D11B4800780128EC
:1004500004D119480021017000F03AFC01B0F0BD50
:1004600001680F4A9142B8D201680E4A9142BBD24C
:1004700000680028C0D1C5E7100200201C0200302F
:100480003C020020440200200D1212135C020020E6
:100490000C02002089130000A10F0000B90B00001E
:1004A000D1070000E9030000E0010020080200205D
:1004B00070170000A802002064020020B0B582B0CE
:1004C0001648016804220A43026015480168102298
:1004D0001143016013480168402421430160124820
:1004E000016811430160016820220A4302600F4D38
:1004F000284602F053FA0221C0232846224602F081
:10050000CDFB0021284602F0CEFB0948019001A94D
:10051000284602F01BFB02B0B0BDC0461C000030F4
:100520001C0500301C0400301C03003014020020A5
:100530001A1A1A1A80B500F017F80948094A917971
:10054000090601D1014600E0011D5278002A00D1C0
:1005500001460868102202430A6000F053F880BD8B
:100560001C0500309C020020B0B517494C78174B91
:100570001748184A002C16D05C68042525435D6096
:10058000536840241C435460021DCB799B060346EC
:1005900000D513461C68102525431D60C979C9077D
:1005A0000DD010460BE0196804240C431C60116840
:1005B00040230B431360016810220A430260016864
:1005C00020220A430260B0BD9C0200201C000030C3
:1005D0001C0300301C0400300848094A91790906C0
:1005E00001D1014600E0011D5278002A00D10146E8
:1005F0000868102202430A607047C0461C0500309C
:100600009C02002070B516480168002902D17D21A6
:10061000C9000160134C2078617809020818A1789C
:100620000904E2781206511808180F4E3168884202
:1006300013D00E4D0021284602F037FB28462146F4
:1006400002F084FA2078617809020818A178090478
:10065000E278120651180818306000BF70BDC0461D
:1006600030020020000000202C0200201402002094
:10067000042809D880000FA318581070030ED370F7
:10068000030C9370000A5070481E80087D280AD31E
:100690000E480B187D208000834204D30A4BC918F2
:1006A000814200D370471A20D07090705070107043
:1006B0007047C0461A000F0F1A1B12151617181094
:1006C0001A02041819050E0A17FCFFFF2FF8FFFF86
:1006D000F0B581B016460C4605467D20C700104691
:1006E000394602F02DFB20704743F01B01B21C4A33
:1006F0004A43D10FD2145118617064224A43801AC0
:1007000041B267224A43D10F92125118A1700A22B6
:100710004A43811AE170022D19D0012D0BD0002D12
:1007200013D10020215C00290FD11A212154401C33
:100730000328F7D109E01A216170102121700930D6
:10074000C0B2132801D21A20A07001B0F0BD1A2146
:100750006170112121700930C0B21228F3D9F4E779
:100760007B14000080B503483021312202F0D8F814
:1007700080BDC04614020020F0B585B0624EB0685E
:10078000F5490A68101A322800D2BAE00868B06049
:10079000B64800685D490968002434800222800759
:1007A00001D5E34300E0D34301250807009200D4BC
:1007B000AB430193D8B2049077792A460295234639
:1007C00003941146049801403A4207D0002905D10C
:1007D000134333703019C678761CC6701046384003
:1007E000084305D1484E3019C178491CC17008E052
:1007F000484248413A420299434E00D101460129FC
:1008000002D13019C17808E0D0B2039901430391B5
:1008100071703019C178491CC170C8B240087D2878
:1008200002D33019FA21C1701006C20D0124002034
:10083000E9070546C5D1019870713179F278502ADF
:1008400007D3002905D1B378D80702D1012003438B
:10085000B370039DE8070CD0B378D80704D1BD4826
:1008600042780124544044700022F270FE2003407C
:10087000B370002A15D1502913D3B078830710D450
:10088000009B1843B070B3484078002809D0204836
:10089000037801245C400470012B02D01D481E4BDC
:1008A0000360A80712D4502A2BD3502929D3B1783A
:1008B000880726D11B480122027003200143B17032
:1008C000A448C17980220A43C2711AE0B278900725
:1008D00012D4002910D09F49487800280CD00F4B23
:1008E0001868002806D08879441CE0B2032800D993
:1008F00000248C710A48186000203071FD200240ED
:10090000B27005B0F0BDC0460400002014030030F2
:10091000080200200C020020881300005C02002066
:10092000B80B0000640200200C480068C00705D125
:100930000B48006881082020084000E02020094979
:10094000CA79DF2313400343CB7107490A78FD239B
:1009500013400009184308707047C0461404003063
:10096000140500309C0200201002002010B517482A
:10097000026817490B689A1AD2087D2A24D309689D
:1009800001600024204600F053FB1249884219D32D
:100990001149884201D2052414E01049884201D24D
:1009A0000A240FE00E49884201D20F240AE00D49C3
:1009B000884201D2142405E00B49884201D31E2449
:1009C00000E019240948448010BDC04648020020B8
:1009D000600200206D020000DA04000046070000FB
:1009E000B30900001F0C00008C0E00009C020020C8
:1009F0000248C179EF220A40C27170479C02002070
:100A000080B51648426816490B689A1A642A11D9AB
:100A100009684160144801682020C907014604D1D3
:100A2000124909688A08202111400E4AD27982436E
:100A30000A4301E00B48C279F32010400949C8710C
:100A40000B48703002F0CCFA0A49884201D80020E5
:100A500000E001200849087080BDC0463402002033
:100A6000600200209C0200201404003014050030B5
:100A700060010020B1090000D8010020B0B5242099
:100A800033490A5C042A62D87A44127952009744A6
:100A9000024C28300D008B692F4A1468E31ADB08DA
:100AA0007D2B54D312688A6101224FE00B6A002229
:100AB000002B4BD00B7F002B49D00B7A4C7AE318DC
:100AC0008C7A1B19CC7A1B19DBB20C7BA3423DD16B
:100AD0000B7A204C63718B7A23711F4B1B688B61DF
:100AE00034E08A691C4B1B689A1A142A2FD90322F6
:100AF0002CE000220A750A724A728A72CA720A735C
:100B000032230B620A7703229203144B1C6894432E
:100B10000122D50364191C600F2424079D68A54396
:100B20005207AA189A60042210E0032292030B4B8A
:100B30001C68944301229203A2181A601A6A802446
:100B400014431C62044A12688A6102220A54B0BD2E
:100B5000E00100209C020020600200200004003020
:100B6000344801683448016101698D2904D3016961
:100B7000B32901D800210175017D4A1E072A0CD82E
:100B8000017A490001720169652948D301698B29FD
:100B900045D8017A491C017241E00A46093A072A00
:100BA0000CD8417A490041720169652937D301693E
:100BB0008B2934D8417A491C417230E00A46113AF7
:100BC000072A0CD8817A490081720169652926D3E8
:100BD00001698B2923D8817A491C81721FE00A465A
:100BE000193A062A0CD8C17A4900C17201696529EF
:100BF00015D301698B2912D8C17A491CC1720EE044
:100C0000203908290BD8017B490001730169652946
:100C100005D301698B2902D8017B491C0173017D31
:100C2000491C0175017D292903D30021017501218A
:100C3000017770470C220040E001002080B5024897
:100C400002F0B2F980BDC0466001002010B51C481A
:100C500002F08FF9002831D01A4C2146083118488B
:100C600002F067F92078FA2812D1207AF5280FD1FE
:100C7000154801210170607814494870A079887185
:100C8000E07903220240C879FC2303409818C87118
:100C90006078A17809020818E1780904227912061F
:100CA0005118081820606079A17909020818E179C3
:100CB0000904227A120651180818606010BDC04657
:100CC0006C02002090020020640200209C020020A0
:100CD000F0B581B000270F4C0F4E104DF15DE95576
:100CE00060698006FCD5204601F08DFB7F1C092F32
:100CF000F4D10B480068002809D10720305600289D
:100D000005D57F210840F071E8790840E87101B00D
:100D1000F0BDC046004100409C020020A802002017
:100D200068020020084800210184084A11605160CF
:100D30001172074A116051601172064A11605160C8
:100D4000117241847047C0466C0200209C02002052
:100D5000A80200209002002010B50F200024214698
:100D600000F062FE204600F0AFFE0420214600F0B5
:100D7000B5FE044804490160044801600B2000F0FE
:100D800063FE10BD58010020005A62025401002089
:100D900010B53F200024214600F0C8FE03200107C3
:100DA0000C600C61CC608C604C608C61144A0A60F1
:100DB00040020861CC60134888604C608C61124826
:100DC000012101600461C4608460446081610F4856
:100DD000052101600461C4608460446084610C4842
:100DE00004600461C46084604460846109480460F4
:100DF0000461C460846044604021816110BDC046CC
:100E00000AAA000011002211000200300003003085
:100E10000004003000050030F0B582B001920D24CE
:100E2000240707190824E741099A089E079D052F02
:100E300009D80091B90008A779580D4F3F680F43B2
:100E400000990B4C276046608560C360019B03617D
:100E50008261016002B0F0BD0100000002000000EC
:100E60000400000008000000100000002000000046
:100E700020180040B0B582B06A462820508000207B
:100E80009080907112481080124C0125204629460E
:100E900000F098FE204629462A4600F0C3FF20684D
:100EA0000421014321600C480168C0220A433F210C
:100EB0008A43026028020949086000F085FC206826
:100EC000284320602046294600F0C3FF02B0B0BD91
:100ED000FFFF00000022004008E400E000E100E025
:100EE00010B584B001AA282090800020D080107214
:100EF0005080FA201080054C0321204600F062FE4D
:100F00000121204600F0A5FF04B010BD00230040E1
:100F100070B584B001AA0026967128205080968072
:100F200001251570114C2046294600F0ABFF2046E4
:100F300029462A4601F042F8204631462A4601F069
:100F40003DF80B486060204601F069F820462946CC
:100F500001F055F8E8030749086000F035FC04216A
:100F6000204601F076F804B070BDC0460025004070
:100F700040420F0000E100E070B50124600400254C
:100F8000294600F017FEE004214600F0D5FD134E7F
:100F90003046294601F0F4F81149304601F0FCF8DA
:100FA0003046294601F000F93046294601F004F99F
:100FB0003046294601F008F90A48306210213046CF
:100FC0002A4601F0AFF84F23304629462A4601F061
:100FD00003F9E103304601F0B1F870BD0024004090
:100FE000204E000000046CE0B0B584B00124002560
:100FF0002046294600F0DEFD01A845800470034923
:101000000391029101F00EFC04B0B0BD50C300008A
:1010100080B584B005200390002002900190034821
:1010200001A900F0FFFA04B080BDC04600300040C6
:1010300010B50146094C204600F02EFB204600F07A
:1010400037FB204600F054FBC006FAD5204600F0DE
:1010500045FB204600F050FB10BDC046003000406C
:10106000B0B584B06C46204601F064F9E12040023E
:1010700000900C4D2846214601F0DAF800210124A9
:101080002846224601F064F907480168C0220A4355
:101090003F218A43026020050449086000F094FB68
:1010A00004B0B0BD0041004014E400E000E100E005
:1010B00070B588B00020079006900190E1204002B2
:1010C0000090032605960F4C6946204601F000FA71
:1010D0000125204629462A4601F0E8FAFF200006AD
:1010E00009490A688243B00710180860E8020749F6
:1010F000086000F069FB2046294601F01FFB08B09C
:1011000070BDC0460038004008E400E000E100E0A7
:1011100000207047704700207047C04670B5154EDC
:1011200003240025304621462A4600F094FB304631
:1011300021462A4600F0BEFB022601233046214606
:101140002A4600F0DFFA28463146224600F0FCFA33
:10115000094800F047FBFF20000608490A6882435F
:10116000A0071018086006490820086000F02CFB52
:1011700070BDC04600020030FF0F000000E400E038
:1011800000E100E0FEE700001A480168491C016028
:1011900019480168002902D00168491E01601748FA
:1011A000016A002902D0016A491E016214480168DF
:1011B000002902D00168491E016012480168002917
:1011C00002D00168491E01600F480168002902D061
:1011D0000168491E01600D480168002902D00168BC
:1011E000491E01600A480168002902D00168491EB1
:1011F0000160704760020020DC010020E001002057
:101200000C020020440200205C020020300200207A
:101210006802002010B5094C2068000703D520683B
:101220000821014321602068400705D5FFF798FC9D
:10123000206804210143216010BDC0460022004007
:10124000B0B50A4C25682807810F0ED0002803D5B9
:101250000821204600F0FDFE680703D50421204642
:1012600000F0F7FE204600F0DAFEB0BD0025004099
:1012700070B582B0124CA1680E200840062818D024
:1012800004281BD101A901220023204601F0F4F813
:10129000002813D00B4D01AE3178284601F05AFEDC
:1012A000012200232046314601F0E6F80028F2D161
:1012B00004E06069C006000F00D0FEE702B070BD18
:1012C000004100406C02002010B582B0074C20465F
:1012D00001F044FA800607D501A901220023204627
:1012E00001F077FA0028F7D102B010BD00380040B5
:1012F0007047704710B57B488079002805D07A493F
:101300000978012809D1002907D178480079FF28F8
:1013100013D121E001717649DCE002224240012331
:10132000594011434A424A410328EED0002AECD1E9
:101330006E480079FF2800D1CEE00F2800D9CBE01D
:101340007844007940008744070A5B73388FA18195
:10135000B751AF2847991B6964480121DAE765480E
:101360000078C007644800D0B7E0416808220A430B
:101370004260416804220A4342605C480221C9E796
:101380005C480078800700D5A6E05B4841680422ED
:101390000A43426055480F21BCE75448026854494B
:1013A0000B689A1A554B9A4200D295E0524A5368FC
:1013B00008241C4354600C228BE04C4802684C49C2
:1013C0000B689A1A642A00D286E04E4A53680124B8
:1013D0001C43546005227CE04448026844490B6881
:1013E0009A1AD2087D2A77D30D2272E03F4802680C
:1013F0003F490B689A1A424B9A426DD30A2268E021
:101400003A4802683A490B689A1A642A64D33A4AFD
:10141000536840241C43546003225AE03348026856
:1014200033490B689A1AD2087D2A55D3FF2250E01F
:101430002E4802682E490B689A1A642A4CD32E4A09
:10144000536820241C435460042242E02748026869
:1014500027490B689A1A642A3ED3274A1368202426
:101460001C431460082234E02048026820490B68BD
:101470009A1A254B9A422FD306222AE01E48016869
:1014800004220A43026019480E2143E71748026804
:1014900017490B689A1A642A1ED3174A1368402406
:1014A0001C431460072214E01348016808220A4311
:1014B00002600E480B212DE70C4802680C490B68AE
:1014C0009A1A642A08D30F4A136801241C43146033
:1014D000092202710968016010BD016804220A43F3
:1014E000026010BD9C020020D80100203C020020B8
:1014F00060020020340200201C050030112700008B
:10150000B80B00001C020030307500000348FF21BA
:1015100001710349096801607047C0463C02002020
:1015200060020020FEF728FEFEF7BEFEFCE700008A
:1015300010B5154801688907090F14A25158174AB8
:10154000116003689B0704D143689B049B0FD9403B
:101550001160846807231C40052C06D3816804248D
:101560000C4303218C438460116882681A40042371
:101570009A1AD1400A4A1160C06803220240D14041
:101580000848016010BDC04600180040005A6202C1
:101590000024F40000800000409C0000580200205D
:1015A000540100205801002004480168C9B255299F
:1015B000FBD172B6024803490160704728F0004031
:1015C000001A0040A095695A07488047074800471D
:1015D000FEE7FEE7FEE7FEE7FEE7FEE70448054913
:1015E000054A064B70470000A9150000B100000035
:1015F000B8020020B8050020B8030020B80300207E
:101600000249086008680028FCD17047DC0100200E
:10161000002805D0242100BF491EFCD1401EF9D16D
:101620007047000070B5002818D00D46044601260A
:10163000B002314600F08CFAF00320602968C90737
:10164000490D6A685207920C511808181030206032
:10165000A8681F210140A160002070BD012070BD5D
:1016600010B5002807D00024046001208002214624
:1016700000F06EFA00E00124204610BD002809D0D9
:101680004A1E91414901026820239A435118016082
:101690000020704701207047002807D00F2211401A
:1016A0000368934359180160002070470120704778
:1016B000002806D00121090202680A4302600020C6
:1016C000704701207047002806D0012109020268F6
:1016D0008A4302600020704701207047002805D02F
:1016E000016810220A430260002070470120704701
:1016F0000168102008407047416801480840704761
:10170000FF0F000070B50E4C0E4D012808D00428C4
:1017100004D0022813D1241D2D1D01E00C340C35FA
:101720008A40012088402E68864316432E60480078
:10173000834003218140206888431843206070BDA6
:101740000411004004100040B0B51A4B072A11D80C
:1017500003282DD8800002A420581C468746C04686
:10176000A1170000711700009117000099170000E1
:101770001C1D15E003281BD81C461034083AC0462F
:1017800078440079400087440B010509143306E0D2
:10179000083304E0183302E00C3300E01C331C462D
:1017A000900081400F2282402068904308432060CF
:1017B000B0BDC0460013004002490A6882430A6077
:1017C0007047C0460014004002490A6802430A609C
:1017D0007047C04600140040014908607047C04689
:1017E00004120040014908607047C04608120040DA
:1017F000014908607047C046101200400148006867
:101800007047C04604120040014800687047C04657
:1018100008120040014800687047C046101200409E
:101820000160426083600099C16001990161704765
:10183000B0B5082901D30C2300E00823C4588D005B
:10184000082900D3203DE9B20F258D40AC438A40E2
:101850002243C250B0BDB0B5032A01D0134600E008
:1018600001234C06240EA3400325A5400468AC4385
:101870001C43046002231343032B08D101238B4034
:101880004168032A01D0994300E019434160B0BD8B
:101890008A4001238B40416A99431143416270475A
:1018A0004906090E8A4003238B400169994311437D
:1018B0000161704710B507231B04846A9C43012310
:1018C0008B4013432343836210BDC16170470162A3
:1018D000704781617047406980B27047024908686B
:1018E0003F220A607047C0461CF000400149086072
:1018F0007047C04620F0004003484168C9B25529EE
:1019000001D002490160704724F000402D00B39ED1
:10191000014908607047C04630F00040B0B500286B
:1019200001D0102200E00F221F21002801D00C4618
:1019300000E00124094805682B460B40934200D083
:101940002B190B400168E0220A40D118FF22023215
:101950004A43034951400160B0BDC046A8F0004071
:1019600000FFB5A610B515490C680A68F0231A40A7
:10197000002808D0641E07202040032815D1802AA3
:101980000AD0032009E0641C0720204004280CD161
:10199000702A06D0042005E00420802A05D0103AE1
:1019A00003E00320702A00D010321A401018FF22E2
:1019B0000232424302485040086010BDACF0004083
:1019C00000FF3D4C10B5084A13681B0703D4136889
:1019D000064C1C43146008430C210143116110693B
:1019E00080210143116110BD04180040080007A5C3
:1019F000044801686022914301600168802291439C
:101A00000160704714180040B0B5054B1C680F25E5
:101A10002540084310432843024901431960B0BDE3
:101A200004180040000007A5084304490A68044B55
:101A300013400343034818430860704704180040EC
:101A4000FFCF0000000007A503490A6892B2034BCC
:101A5000D21882430A60704704180040000007A5AE
:101A60000A498A68FF239A438A600A69084B1A4028
:101A70000A610A681A400A600A680A2313430B6065
:101A800004490143044801607047C0460005003026
:101A9000F0FFFF000000379B80180040FF2001028C
:101AA000074882688A4382600169064A11400161E1
:101AB0000168114001600168A0220A43026070477A
:101AC000000500300FFFFF0002490143024801609A
:101AD0007047C04600000A5700180040014A1060D5
:101AE00051607047081800400F20010408488268C0
:101AF0008A4382600169074A11400161016811400F
:101B000001600121490202680A4302607047C04631
:101B100000050030FFFCFF00084310438021014313
:101B2000014801607047C04610180040014A10602B
:101B30005160704720180040044A002902D0116803
:101B4000014301E011688143116070472018004093
:101B5000044A002902D01168014301E01168814361
:101B60001160704724180040054A106051600A2037
:101B700000BF401EFCD10020106050607047C0467E
:101B800060180040044908600A2000BF401EFCD1D4
:101B9000002008607047C046601800400449086093
:101BA0000A2000BF401EFCD1002008607047C046DC
:101BB00064180040EB4A13688343136010680843BD
:101BC0001060704770B515460E460446444884427E
:101BD0000ADC4948844213DC0120002C7FD04949AB
:101BE0008C422AD1000425E03E48844211DC404862
:101BF000844217D03F4884421FD10120400219E09F
:101C00003E48844211D03E48844216D101208004CF
:101C100010E0354884420BD0344884420DD1012075
:101C2000C00207E00120000204E00120400401E0BE
:101C3000012080020121FFF77FFF002E11D001203B
:101C400031468143022917D13003E9798A030243DF
:101C5000A87900021043012925D1297AC90201433C
:101C600022E0E9798A03A87900021043012913D1FF
:101C7000297AC902014310E0012E2BD12879800175
:101C80006A7991030B182048411C1943012A17D186
:101C9000AA79D2020A4314E0014688B22060A888DB
:101CA000401E194911E0014688B22060A888401EF4
:101CB00015490140216128886060AD1C082007E0BB
:101CC0000A4691B221606988091801402161042007
:101CD000298821502068012101432160002070BD26
:101CE000FF260040FF28004000290040002A004055
:101CF0000027004000280040FF2100400022004053
:101D00000023004000210040FF0F000070B50028B4
:101D100000D158E00446002505603B4820180826FD
:101D2000F041092800D96BE07844007940008744ED
:101D300004182B6767673D4C58610120000400259B
:101D40002946FFF7F9FE31482018F041082857D8F6
:101D5000784400794000874404175353532938448A
:101D60004D000120400400252946FFF7E5FE2848E4
:101D70002018F041072843D8784400794000874470
:101D8000033F3F3F152430390120800400252946B8
:101D9000FFF7D2FE1F482018F041032830D8C04674
:101DA000784400794000874401101C250126300248
:101DB00000252946FFF7C0FE1948844222D0174863
:101DC000844214D10DE001251AE0012040020025D3
:101DD0002946FFF7B1FE104884420BD00F488442D9
:101DE0000ED10120800200252946FFF7A5FE0A48F2
:101DF000844205D10120C00200252946FFF79CFE40
:101E0000284670BD7002F7E700DFFFBF00DEFFBFAE
:101E100000DDFFBF00D9FFBF002A004000290040BD
:101E20000028004010B5002806D04C1E63426341D4
:101E3000002903D0190102E0012010BD2021012A50
:101E400002D102680A4301E002688A43026000206E
:101E500010BD00280BD0491E4A424A41D10301223D
:101E6000D203036893435918016000207047012092
:101E70007047002803D001600261002070470120F4
:101E80007047000070B5012300284CD0354C364D0A
:101E9000A84205D0354B984208D101235B0500E0EC
:101EA0001B052546203D2E681E432E60002915D0B7
:101EB00001230D469D43022D37D1157A1B05266857
:101EC0009E43EB07DB0A9B1923600903137B9B03EB
:101ED0000B43517BC902194389B20EE0117A0123E9
:101EE0001B0525689D43C907C90A49192160117B53
:101EF0008903537BDB020B4399B2937B1B020B4399
:101F0000D17B8901194301605189491E184B0B404F
:101F10000361116841605168082281500168012203
:101F20000A4302600023184670BD0129F6D11178DA
:101F30001D052668AE43C907C90A89192160517970
:101F400089031479A4016118947964020C4319037C
:101F5000214389B2016051884A1E0549114010226F
:101F6000DBE7C04640180040002500400026004046
:101F7000FF0F000000280ED001460120C0030A68B0
:101F800082430A600020094A914206D0084A9142E1
:101F900008D1084902E0012070470349064A136846
:101FA0000B4013607047C046FFFFEFFF0025004065
:101FB00000260040FFFFDFFF2018004000280CD063
:101FC0000346002001290AD0002917D1002A0ED08B
:101FD000012A13D11A68202107E001207047002A46
:101FE00008D0012A0AD11A681021114305E01968A6
:101FF000202201E0196810229143196070470028DF
:102000000BD0491E4A424A41D1030122D203036840
:102010009343591801600020704701207047002841
:1020200006D00168016801220A430260002070475F
:1020300001207047002807D003460020002905D062
:10204000012905D1082102E00120704704215A50DE
:102050007047002806D00D22114002680A43026032
:1020600000207047012070470068C0B27047C06808
:1020700070470000B0B5002821D0124A904205D127
:102080000122D204104B1C6814431C603CC912038B
:102090009B031343E2021A43AB01134303600A8814
:1020A00042604A8882608A88C260CA88026109895F
:1020B0008161016801220A4302600020B0BD012055
:1020C000B0BDC046002400402018004000280AD0BF
:1020D00001460122D0030B6883430B600020064BAE
:1020E000994202D0704701207047D104034A136817
:1020F0008B4313607047C046002400402018004006
:10210000002805D0012905D1816A1143816206E0CA
:1021100001207047816A91437F220A408262002039
:102120007047C046002805D01143034A0A430260A5
:1021300000207047012070470120000000280BD0CC
:102140000122D203891A4B424B41D90303689343BE
:10215000591801600020704701207047002803D003
:10216000012903D0054902E00120704702491343C9
:102170000B43036200207047003F6CE000006CE0FE
:10218000002804D0034A11408161002070470120DB
:102190007047C046FF0F0000002803D089B241609D
:1021A0000020704701207047002803D089B2816069
:1021B0000020704701207047002803D089B2C16019
:1021C0000020704701207047002803D089B20161C8
:1021D000002070470120704710B500280BD00A433B
:1021E0000321090204688C431443046003490B4033
:1021F0004362002010BD012010BDC046FF03000057
:10220000002802D001630020704701207047002899
:1022100003D041638263002070470120704700288B
:1022200002D0C1620020704701207047C06A704729
:10223000F0B581B000283AD00E4604462C488442BE
:1022400004D02C48844207D1082000E0042001215A
:10225000FFF77EFC00E020686069C007FBD1606981
:102260008006FCD500206060E0600090206160691D
:10227000A06821480768306845013846294600F0C3
:1022800055FD81B221626843381A0002294600F0E8
:102290004DFDC0B26062E1684020084071680029CD
:1022A0000BD0022905D0012905D1012104E001202C
:1022B0001BE0022100E003210843B16800290DD092
:1022C000042907D0032903D0022905D1182104E0ED
:1022D000282102E0382100E008210843F1680129A3
:1022E00001D104210843E060009801B0F0BDC04670
:1022F00000400040004100405801002010B5002877
:1023000011D00A49884204D00949884209D10824D9
:1023100000E004242046FFF741FC00212046FFF79F
:1023200017FC002010BD012010BDC0460040004039
:1023300000410040002809D00146002003224B2321
:102340005B020B604A608860C8607047012070477C
:10235000002806D0491E022905D8890008A359582B
:1023600002E0012070470121012A02D142680A439C
:1023700003E00F22514042680A404260002070474B
:10238000020000000400000008000000002805D042
:10239000032905D8890009A3595802E00120704794
:1023A0000021012A02D102690A4303E01C225140A4
:1023B00002690A40026100207047C0461000000018
:1023C00008000000040000000C000000002805D0F8
:1023D00002460020072900D811637047012070478A
:1023E000002805D0C16840220A43C260002070471F
:1023F0000120704741697F2008407047406981098A
:10240000012088437047002802D0016000207047F7
:10241000012070470068C0B27047C046F0B5012B7C
:102420001AD10023002A13D0124C154627463E46E7
:102430004769BF0602D4771C002EF8D1002E07D0C2
:102440000E7806605B1C6D1E491C002DEED11346F4
:1024500041694906FCD50BE00023002A08D04469F5
:10246000A40605D5CC5C04605B1C9A42F7D11346E8
:102470001846F0BD0100FFFFF0B50446012B16D150
:10248000002A21D00020114B15461F463E466769A1
:10249000FF0702D1771C002EF8D1002E13D026683A
:1024A0000E70401C6D1E491C002DEED10AE0002A62
:1024B0000AD000206369DB0705D023680B54401C59
:1024C0008242F7D11046F0BD0020F0BD0100FFFFB1
:1024D00070B50D4604462F4884420ADD2E488442DA
:1024E0000ED02E4884420DD02D48844212D10226AF
:1024F00009E00126002C4AD02A48844203D009E092
:10250000202600E0102601213046FFF721FB30464F
:10251000FFF744FB244800682449086069680426E2
:102520000029314600D00121C840296800F0FEFB97
:10253000401E80B22061A8698007800C6968890309
:1025400089B2081869694907090D4018A968C907BF
:10255000C90D4018E968C901C9B240182969890143
:10256000C9B201430320084320606068B043606043
:10257000E8696168C007400F08436060606808212F
:10258000884360604020E0606069606900263046F2
:1025900070BDC046FF380040003B0040003A00409C
:1025A0000039004000380040580100205C01002044
:1025B00002460120002A07D0C91E032904D888003A
:1025C00002A10858D06000207047C04610000000EB
:1025D0002000000040000000800000004069C0B200
:1025E0007047C04610B5114988420ADD104988423B
:1025F0000ED0104988420DD00F49884212D10224D2
:1026000009E0012400280ED00C49884203D009E0DB
:10261000202400E010242046FFF7C0FA00212046C5
:10262000FFF796FA0024204610BDC046FF38004050
:10263000003B0040003A00400039004000380040B4
:1026400000280AD00146002003224A618861C8613F
:102650004B2252020A60486070470120704710B553
:1026600000280ED001460020032201234B246402DF
:102670000C604B608860C8600B614A618861C8610A
:1026800010BD012010BD00280DD0014600200322FE
:102690004B235B020B604A608860C86008614A6136
:1026A0008861C861704701207047C046002805D086
:1026B000032905D8890008A3595802E00120704772
:1026C0000021012A02D102680A4301E002688A431C
:1026D000026000207047C0460400000008000000AF
:1026E0001000000020000000002805D0092905D8AE
:1026F000890008A3595802E0012070470021012AEF
:1027000002D142680A4301E042688A4342600020E5
:102710007047C046010000000200000004000000F5
:102720000800000010000000200000004000000031
:1027300080000000000100000002000000280BD013
:10274000491E4A424A4151020122520243689343C0
:10275000591841600020704701207047C068C0B21E
:102760007047C068C109012088437047002802D023
:102770004161002070470120704770B50446012B6D
:1027800018D1002A23D000201346002C01D00D7848
:102790006561491C01263546E668760602D46E1C42
:1027A000002DF8D1002D11D04025E560401C5B1EA6
:1027B000EBD10AE0002A0AD00020E3681B0605D509
:1027C0000B5C6361401C8242F7D1104670BD002053
:1027D00070BD70B50446012B15D1002A20D0002011
:1027E000134601263546E668B60602D46E1C002D57
:1027F000F8D1002D13D065690D70401C5B1E491C7B
:10280000002BEED10AE0002A0AD00020E3689B06E4
:1028100005D563690B54401C8242F7D1104670BD48
:10282000002070BD10B5002814D0044601214804D2
:10283000FFF78EF961680C4A11400C488160A1686D
:102840001140016161882278012A05D02522920277
:10285000114303E0012010BD054A1140054A0A4317
:102860000260002010BDC046FFFFFF00001A0040BC
:102870005F020000A001695A02480349016000207C
:102880007047C046001A0040A095695A10B5431E13
:102890005A425A41002801D0D20000E004220648E2
:1028A00003689BB2054C1B19012901D0934300E03A
:1028B00013430360002010BD001A00400000695A55
:1028C00002486A21016000207047C046141A004087
:1028D00007490A68012804D00D204001024392B242
:1028E00001E00448024004481018086000207047C6
:1028F000001A00400FFC00000000695A01490860FE
:1029000000207047041A0040014800687047C04624
:10291000041A0040014800687047C0460C1A004085
:10292000F0B500238360D3171B0FD318F0241C408D
:10293000121B4275CA17120F8A180F241509A243D9
:102940008A1A027519090B0203210C071B1903616E
:102950002B021B19C360D4B201221546A5405C6846
:10296000AC435C60C3681C68057D6D001646AE40D4
:102970000F46AF40BC4334431C6003695C68457D2F
:102980001646AE40B4435C6003691C68457D6D002B
:10299000AA40A9408C4314431C60F0BD80B500F0F0
:1029A00001F880BDB0B5044600217F252A4600F01D
:1029B00033F9012120462A4600F02EF90221204653
:1029C0002A4600F029F9032120462A4600F024F97E
:1029D000B0BDF0B583B00D460746002000970190CA
:1029E000387D012102918140F86801620A26304653
:1029F000FEF70EFEE80701D01C2000E02020009F1B
:102A0000797D029C22468A4039690A503046FEF799
:102A1000FFFD387D8440F868C4613046FEF7F8FD5C
:102A20000199481C6D080729D9D3387D029E31468B
:102A30008140F86801620A20FEF7EAFD787D3146A0
:102A400081403869C161387D31468140F868C16193
:102A5000386901687A7D520003252B4693409943DB
:102A6000016038694269797DCA40D20721D00022CD
:102A7000521CD3B2C82B10D1490032468A402B4693
:102A80008B400168994311430160787D3146814054
:102A900038690162797D3869002249002B468B40F4
:102AA00001689943016038694369797DCB40DB0750
:102AB000DED10A20FEF7ACFD386901687A7D52004C
:102AC00096409540A9433143016003B0F0BD70B515
:102AD0000446007D012631468140E068C1610A2537
:102AE0002846FEF795FD607D314681402069C16131
:102AF0002846FEF78DFD607D3146814020690162E8
:102B00002846FEF785FD207D8640E068066270BDA0
:102B100070B50446407D012631468140206901623E
:102B2000207D31468140E06801620A252846FEF793
:102B30006FFD207D31468140E068C1612846FEF787
:102B400067FD607D86402069C66170BD70B582B04A
:102B5000044608784A78120210188A781204C97854
:102B60000906891808180190207900211D4A0B4692
:102B700001ADEE567F2E0D4600D0955D0646DE4037
:102B8000F60701D08026354301AEF5545B1C042BBB
:102B9000EED12046FFF79BFF40212046FFF719FFAB
:102BA0002046FFF7B5FF2046FFF791FF61782046EA
:102BB000FFF70FFF002501A8415D2046FFF709FF41
:102BC0006D1C042DF7D12046FFF7A2FF2046FFF72A
:102BD0007EFFA1782046FFF7FCFE2046FFF798FF16
:102BE00002B070BDE42F000070B50022094B1446FE
:102BF0000E577F2E154600D09D5D0D550679E64097
:102C0000F60702D0802635430D55641C042CEFD105
:102C100070BDC046E42F0000F0B581B00E460446FA
:102C20007F2A01D1002502E050B216490D5C2779B8
:102C30002046FFF74CFF44212046FFF7CAFE2046FE
:102C4000FFF766FF2046FFF742FFC02131432046D1
:102C5000FFF7BFFEF740F80701D08020054320466C
:102C60002946FFF7B6FE2046FFF752FF2046FFF742
:102C70002EFFA1782046FFF7ACFE2046FFF748FF65
:102C800001B0F0BDE42F00007F2901D1002001E058
:102C90000148405C40B27047E42F0000437002706E
:102CA000783981707047C1707047017170470000BA
:102CB0000B4A30B511460B4C60310B46DC3B0CC166
:102CC000372106E0020C8D0012185A51064A504373
:102CD00000190A46491E002AF4DC30BD0120E7E74E
:102CE0008C000020E119D666CD0D010001E004C082
:102CF000091F0429FBD28B0701D50280801CC9075C
:102D000000D00270704700290BD0C30702D00270B8
:102D1000401C491E022904D3830702D50280801C6F
:102D2000891EE3E70022EEE70022DFE70022030925
:102D30008B422CD3030A8B4211D300239C464EE0D6
:102D400003460B433CD4002243088B4231D3030992
:102D50008B421CD3030A8B4201D394463FE0C30944
:102D60008B4201D3CB01C01A524183098B4201D35C
:102D70008B01C01A524143098B4201D34B01C01A47
:102D8000524103098B4201D30B01C01A5241C308BF
:102D90008B4201D3CB00C01A524183088B4201D32E
:102DA0008B00C01A524143088B4201D34B00C01A1A
:102DB0005241411A00D201465241104670475DE02F
:102DC000CA0F00D04942031000D3404253409C46F2
:102DD000002203098B422DD3030A8B4212D38901AF
:102DE000FC2212BA030A8B420CD3890192118B4246
:102DF00008D3890192118B4204D389013AD09211F0
:102E000000E08909C3098B4201D3CB01C01A5241AA
:102E100083098B4201D38B01C01A524143098B4273
:102E200001D34B01C01A524103098B4201D30B015C
:102E3000C01A5241C3088B4201D3CB00C01A524181
:102E400083088B4201D38B00C01A5241D9D2430868
:102E50008B4201D34B00C01A5241411A00D20146A5
:102E60005241104663465B1001D34042002B00D50F
:102E70004942704763465B1000D3404201B50549A3
:102E8000002802DC491C084000E00846C046C04655
:102E900002BD00BFFFFFFF7F704770477047000013
:102EA00008487CB57844009007487844009C054663
:102EB000019004E02046016808188047241DAC42B8
:102EC000F8D17CBD7801000082010000754600F059
:102ED00025F8AE46050069465346C008C000854641
:102EE00018B020B5FEF77AFB60BCB6460026002776
:102EF000C0C5C0C5C0C5C0C5C0C5C0C5C0C5C0C5AA
:102F0000403D490849008D46704710B50446C0460B
:102F1000C0462046FDF729F910BD00000048704763
:102F2000F400002001491820ABBEFEE72600020095
:102F3000704710B5028C438C9A4207D0448C045DD4
:102F40000C70418C491C1F240C404484D01A411E33
:102F5000884110BD10B5028C531C1F221A40438CAF
:102F60009A4202D0048C01550284D01A411E884135
:102F700010BD018C428C914204D2418C008C401ACD
:102F8000203002E0018C408C081A80B2704710B5E6
:102F90000446002020846061A061E1611421204684
:102FA000FFF7C2FE204610BDB0B504460720A07052
:102FB0000A482080201D00252946FFF7E8FF20460B
:102FC00028302946FFF7E3FF20464C302946FFF71B
:102FD000DEFF7420255425672046B0BD050600009D
:102FE000008C70473F065B4F666D7D077F6F777C77
:102FF000395E797178765C5040665406743E005EA6
:103000003030000000000020100000000C01000023
:103010004030000010000020A80500002C01000036
:1030200045D7FFFF19DCFFFFFDDCFFFFE1E4FFFFF9
:103030001A1A1A1A0000000000FF00000000000029
:020000041FFFDC
:10F2000073A2C869FFFF0000FFFF0000DB96FFFF4D
:10F21000FFAAFFFFFFFFFFFFFFFFFFFFFFFFFFFF53
:10F22000FFFFFFFFFFFFFFFFFFFFFFFFFFFFFFFFEE
:10F23000FFFFFFFFFFFFFFFFFFFFFFFFFFFFFFFFDE
:04F24000FFFFFFFFCE
:020000041FFFDC
:10F40000E2E2E2E2FFFFFFFFFFFFFFFFFFFFFFFF80
:10F41000FFFFFFFFFFFFFFFFFFFFFFFFFFFFFFFFFC
:10F42000FFFFFFFFFFFFFFFFFFFFFFFFFFFFFFFFEC
:10F43000FFFFFFFFFFFFFFFFFFFFFFFFFFFFFFFFDC
:10F44000FFFFFFFFFFFFFFFFFFFFFFFFFFFFFFFFCC
:10F45000FFFFFFFFFFFFFFFFFFFFFFFFFFFFFFFFBC
:10F46000FFFFFFFFFFFFFFFFFFFFFFFFFFFFFFFFAC
:10F47000FFFFFFFFFFFFFFFFFFFFFFFFE2E2E2E210
:020000041FFFDC
:10F60000E3E3E3E3FFFFFFFFFFFFFFFFFFFFFFFF7A
:10F61000FFFFFFFFFFFFFFFFFFFFFFFFFFFFFFFFFA
:10F62000FFFFFFFFFFFFFFFFFFFFFFFFFFFFFFFFEA
:10F63000FFFFFFFFFFFFFFFFFFFFFFFFFFFFFFFFDA
:10F64000FFFFFFFFFFFFFFFFFFFFFFFFFFFFFFFFCA
:10F65000FFFFFFFFFFFFFFFFFFFFFFFFFFFFFFFFBA
:10F66000FFFFFFFFFFFFFFFFFFFFFFFFFFFFFFFFAA
:10F67000FFFFFFFFFFFFFFFFFFFFFFFFE3E3E3E30A
:04000005000000B146
:00000001FF
